{
  "contractName": "BALANCE",
  "abi": [
    {
      "inputs": [],
      "stateMutability": "nonpayable",
      "type": "constructor"
    },
    {
      "anonymous": false,
      "inputs": [
        {
          "indexed": true,
          "internalType": "address",
          "name": "owner",
          "type": "address"
        },
        {
          "indexed": true,
          "internalType": "address",
          "name": "approved",
          "type": "address"
        },
        {
          "indexed": true,
          "internalType": "uint256",
          "name": "tokenId",
          "type": "uint256"
        }
      ],
      "name": "Approval",
      "type": "event"
    },
    {
      "anonymous": false,
      "inputs": [
        {
          "indexed": true,
          "internalType": "address",
          "name": "owner",
          "type": "address"
        },
        {
          "indexed": true,
          "internalType": "address",
          "name": "operator",
          "type": "address"
        },
        {
          "indexed": false,
          "internalType": "bool",
          "name": "approved",
          "type": "bool"
        }
      ],
      "name": "ApprovalForAll",
      "type": "event"
    },
    {
      "anonymous": false,
      "inputs": [
        {
          "indexed": false,
          "internalType": "address",
          "name": "_seller",
          "type": "address"
        },
        {
          "indexed": false,
          "internalType": "address",
          "name": "_buyer",
          "type": "address"
        },
        {
          "indexed": false,
          "internalType": "uint256",
          "name": "_price",
          "type": "uint256"
        }
      ],
      "name": "NftBought",
      "type": "event"
    },
    {
      "anonymous": false,
      "inputs": [
        {
          "indexed": true,
          "internalType": "address",
          "name": "from",
          "type": "address"
        },
        {
          "indexed": true,
          "internalType": "address",
          "name": "to",
          "type": "address"
        },
        {
          "indexed": true,
          "internalType": "uint256",
          "name": "tokenId",
          "type": "uint256"
        }
      ],
      "name": "Transfer",
      "type": "event"
    },
    {
      "inputs": [],
      "name": "admin",
      "outputs": [
        {
          "internalType": "address",
          "name": "",
          "type": "address"
        }
      ],
      "stateMutability": "view",
      "type": "function",
      "constant": true
    },
    {
      "inputs": [
        {
          "internalType": "address",
          "name": "to",
          "type": "address"
        },
        {
          "internalType": "uint256",
          "name": "tokenId",
          "type": "uint256"
        }
      ],
      "name": "approve",
      "outputs": [],
      "stateMutability": "nonpayable",
      "type": "function"
    },
    {
      "inputs": [
        {
          "internalType": "address",
          "name": "owner",
          "type": "address"
        }
      ],
      "name": "balanceOf",
      "outputs": [
        {
          "internalType": "uint256",
          "name": "",
          "type": "uint256"
        }
      ],
      "stateMutability": "view",
      "type": "function",
      "constant": true
    },
    {
      "inputs": [
        {
          "internalType": "uint256",
          "name": "tokenId",
          "type": "uint256"
        }
      ],
      "name": "getApproved",
      "outputs": [
        {
          "internalType": "address",
          "name": "",
          "type": "address"
        }
      ],
      "stateMutability": "view",
      "type": "function",
      "constant": true
    },
    {
      "inputs": [
        {
          "internalType": "address",
          "name": "owner",
          "type": "address"
        },
        {
          "internalType": "address",
          "name": "operator",
          "type": "address"
        }
      ],
      "name": "isApprovedForAll",
      "outputs": [
        {
          "internalType": "bool",
          "name": "",
          "type": "bool"
        }
      ],
      "stateMutability": "view",
      "type": "function",
      "constant": true
    },
    {
      "inputs": [],
      "name": "name",
      "outputs": [
        {
          "internalType": "string",
          "name": "",
          "type": "string"
        }
      ],
      "stateMutability": "view",
      "type": "function",
      "constant": true
    },
    {
      "inputs": [],
      "name": "nextTokenId",
      "outputs": [
        {
          "internalType": "uint256",
          "name": "",
          "type": "uint256"
        }
      ],
      "stateMutability": "view",
      "type": "function",
      "constant": true
    },
    {
      "inputs": [
        {
          "internalType": "uint256",
          "name": "tokenId",
          "type": "uint256"
        }
      ],
      "name": "ownerOf",
      "outputs": [
        {
          "internalType": "address",
          "name": "",
          "type": "address"
        }
      ],
      "stateMutability": "view",
      "type": "function",
      "constant": true
    },
    {
      "inputs": [
        {
          "internalType": "address",
          "name": "from",
          "type": "address"
        },
        {
          "internalType": "address",
          "name": "to",
          "type": "address"
        },
        {
          "internalType": "uint256",
          "name": "tokenId",
          "type": "uint256"
        }
      ],
      "name": "safeTransferFrom",
      "outputs": [],
      "stateMutability": "nonpayable",
      "type": "function"
    },
    {
      "inputs": [
        {
          "internalType": "address",
          "name": "from",
          "type": "address"
        },
        {
          "internalType": "address",
          "name": "to",
          "type": "address"
        },
        {
          "internalType": "uint256",
          "name": "tokenId",
          "type": "uint256"
        },
        {
          "internalType": "bytes",
          "name": "_data",
          "type": "bytes"
        }
      ],
      "name": "safeTransferFrom",
      "outputs": [],
      "stateMutability": "nonpayable",
      "type": "function"
    },
    {
      "inputs": [
        {
          "internalType": "address",
          "name": "operator",
          "type": "address"
        },
        {
          "internalType": "bool",
          "name": "approved",
          "type": "bool"
        }
      ],
      "name": "setApprovalForAll",
      "outputs": [],
      "stateMutability": "nonpayable",
      "type": "function"
    },
    {
      "inputs": [
        {
          "internalType": "bytes4",
          "name": "interfaceId",
          "type": "bytes4"
        }
      ],
      "name": "supportsInterface",
      "outputs": [
        {
          "internalType": "bool",
          "name": "",
          "type": "bool"
        }
      ],
      "stateMutability": "view",
      "type": "function",
      "constant": true
    },
    {
      "inputs": [],
      "name": "symbol",
      "outputs": [
        {
          "internalType": "string",
          "name": "",
          "type": "string"
        }
      ],
      "stateMutability": "view",
      "type": "function",
      "constant": true
    },
    {
      "inputs": [
        {
          "internalType": "uint256",
          "name": "",
          "type": "uint256"
        }
      ],
      "name": "tokenIdToPrice",
      "outputs": [
        {
          "internalType": "uint256",
          "name": "",
          "type": "uint256"
        }
      ],
      "stateMutability": "view",
      "type": "function",
      "constant": true
    },
    {
      "inputs": [
        {
          "internalType": "uint256",
          "name": "tokenId",
          "type": "uint256"
        }
      ],
      "name": "tokenURI",
      "outputs": [
        {
          "internalType": "string",
          "name": "",
          "type": "string"
        }
      ],
      "stateMutability": "view",
      "type": "function",
      "constant": true
    },
    {
      "inputs": [
        {
          "internalType": "address",
          "name": "from",
          "type": "address"
        },
        {
          "internalType": "address",
          "name": "to",
          "type": "address"
        },
        {
          "internalType": "uint256",
          "name": "tokenId",
          "type": "uint256"
        }
      ],
      "name": "transferFrom",
      "outputs": [],
      "stateMutability": "nonpayable",
      "type": "function"
    },
    {
      "inputs": [
        {
          "internalType": "address",
          "name": "to",
          "type": "address"
        }
      ],
      "name": "mint",
      "outputs": [],
      "stateMutability": "nonpayable",
      "type": "function"
    },
    {
      "inputs": [
        {
          "internalType": "uint256",
          "name": "_tokenId",
          "type": "uint256"
        },
        {
          "internalType": "uint256",
          "name": "_price",
          "type": "uint256"
        }
      ],
      "name": "allowBuy",
      "outputs": [],
      "stateMutability": "nonpayable",
      "type": "function"
    },
    {
      "inputs": [
        {
          "internalType": "uint256",
          "name": "_tokenId",
          "type": "uint256"
        }
      ],
      "name": "disallowBuy",
      "outputs": [],
      "stateMutability": "nonpayable",
      "type": "function"
    },
    {
      "inputs": [
        {
          "internalType": "uint256",
          "name": "_tokenId",
          "type": "uint256"
        }
      ],
      "name": "buy",
      "outputs": [],
      "stateMutability": "payable",
      "type": "function",
      "payable": true
    }
  ],
  "bytecode": "0x60806040523480156200001157600080fd5b506040518060400160405280600781526020017f42616c616e6365000000000000000000000000000000000000000000000000008152506040518060400160405280600781526020017f42414c414e434500000000000000000000000000000000000000000000000000815250816000908051906020019062000096929190620000f9565b508060019080519060200190620000af929190620000f9565b50505033600860006101000a81548173ffffffffffffffffffffffffffffffffffffffff021916908373ffffffffffffffffffffffffffffffffffffffff1602179055506200020e565b8280546200010790620001a9565b90600052602060002090601f0160209004810192826200012b576000855562000177565b82601f106200014657805160ff191683800117855562000177565b8280016001018555821562000177579182015b828111156200017657825182559160200191906001019062000159565b5b5090506200018691906200018a565b5090565b5b80821115620001a55760008160009055506001016200018b565b5090565b60006002820490506001821680620001c257607f821691505b60208210811415620001d957620001d8620001df565b5b50919050565b7f4e487b7100000000000000000000000000000000000000000000000000000000600052602260045260246000fd5b612f90806200021e6000396000f3fe60806040526004361061011f5760003560e01c806395d89b41116100a0578063d499131211610064578063d4991312146103f5578063d96a094a1461041e578063e985e9c51461043a578063f4812eb914610477578063f851a440146104b45761011f565b806395d89b4114610312578063a22cb4651461033d578063b88d4fde14610366578063bbb5e8d31461038f578063c87b56dd146103b85761011f565b806342842e0e116100e757806342842e0e1461021b5780636352211e146102445780636a6278421461028157806370a08231146102aa57806375794a3c146102e75761011f565b806301ffc9a71461012457806306fdde0314610161578063081812fc1461018c578063095ea7b3146101c957806323b872dd146101f2575b600080fd5b34801561013057600080fd5b5061014b60048036038101906101469190611e8d565b6104df565b604051610158919061237f565b60405180910390f35b34801561016d57600080fd5b506101766105c1565b604051610183919061239a565b60405180910390f35b34801561019857600080fd5b506101b360048036038101906101ae9190611ee7565b610653565b6040516101c091906122e1565b60405180910390f35b3480156101d557600080fd5b506101f060048036038101906101eb9190611e4d565b6106d8565b005b3480156101fe57600080fd5b5061021960048036038101906102149190611d37565b6107f0565b005b34801561022757600080fd5b50610242600480360381019061023d9190611d37565b610850565b005b34801561025057600080fd5b5061026b60048036038101906102669190611ee7565b610870565b60405161027891906122e1565b60405180910390f35b34801561028d57600080fd5b506102a860048036038101906102a39190611cca565b610922565b005b3480156102b657600080fd5b506102d160048036038101906102cc9190611cca565b6109e5565b6040516102de919061261c565b60405180910390f35b3480156102f357600080fd5b506102fc610a9d565b604051610309919061261c565b60405180910390f35b34801561031e57600080fd5b50610327610aa3565b604051610334919061239a565b60405180910390f35b34801561034957600080fd5b50610364600480360381019061035f9190611e0d565b610b35565b005b34801561037257600080fd5b5061038d60048036038101906103889190611d8a565b610cb6565b005b34801561039b57600080fd5b506103b660048036038101906103b19190611f14565b610d18565b005b3480156103c457600080fd5b506103df60048036038101906103da9190611ee7565b610ded565b6040516103ec919061239a565b60405180910390f35b34801561040157600080fd5b5061041c60048036038101906104179190611ee7565b610e94565b005b61043860048036038101906104339190611ee7565b610f26565b005b34801561044657600080fd5b50610461600480360381019061045c9190611cf7565b61107b565b60405161046e919061237f565b60405180910390f35b34801561048357600080fd5b5061049e60048036038101906104999190611ee7565b61110f565b6040516104ab919061261c565b60405180910390f35b3480156104c057600080fd5b506104c9611127565b6040516104d691906122e1565b60405180910390f35b60007f80ac58cd000000000000000000000000000000000000000000000000000000007bffffffffffffffffffffffffffffffffffffffffffffffffffffffff1916827bffffffffffffffffffffffffffffffffffffffffffffffffffffffff191614806105aa57507f5b5e139f000000000000000000000000000000000000000000000000000000007bffffffffffffffffffffffffffffffffffffffffffffffffffffffff1916827bffffffffffffffffffffffffffffffffffffffffffffffffffffffff1916145b806105ba57506105b98261114d565b5b9050919050565b6060600080546105d090612841565b80601f01602080910402602001604051908101604052809291908181526020018280546105fc90612841565b80156106495780601f1061061e57610100808354040283529160200191610649565b820191906000526020600020905b81548152906001019060200180831161062c57829003601f168201915b5050505050905090565b600061065e826111b7565b61069d576040517f08c379a00000000000000000000000000000000000000000000000000000000081526004016106949061251c565b60405180910390fd5b6004600083815260200190815260200160002060009054906101000a900473ffffffffffffffffffffffffffffffffffffffff169050919050565b60006106e382610870565b90508073ffffffffffffffffffffffffffffffffffffffff168373ffffffffffffffffffffffffffffffffffffffff161415610754576040517f08c379a000000000000000000000000000000000000000000000000000000000815260040161074b906125bc565b60405180910390fd5b8073ffffffffffffffffffffffffffffffffffffffff16610773611223565b73ffffffffffffffffffffffffffffffffffffffff1614806107a257506107a18161079c611223565b61107b565b5b6107e1576040517f08c379a00000000000000000000000000000000000000000000000000000000081526004016107d89061249c565b60405180910390fd5b6107eb838361122b565b505050565b6108016107fb611223565b826112e4565b610840576040517f08c379a0000000000000000000000000000000000000000000000000000000008152600401610837906125fc565b60405180910390fd5b61084b8383836113c2565b505050565b61086b83838360405180602001604052806000815250610cb6565b505050565b6000806002600084815260200190815260200160002060009054906101000a900473ffffffffffffffffffffffffffffffffffffffff169050600073ffffffffffffffffffffffffffffffffffffffff168173ffffffffffffffffffffffffffffffffffffffff161415610919576040517f08c379a0000000000000000000000000000000000000000000000000000000008152600401610910906124dc565b60405180910390fd5b80915050919050565b600860009054906101000a900473ffffffffffffffffffffffffffffffffffffffff1673ffffffffffffffffffffffffffffffffffffffff163373ffffffffffffffffffffffffffffffffffffffff16146109b2576040517f08c379a00000000000000000000000000000000000000000000000000000000081526004016109a99061245c565b60405180910390fd5b600260075410156109e2576109c98160075461161e565b600760008154809291906109dc906128a4565b91905055505b50565b60008073ffffffffffffffffffffffffffffffffffffffff168273ffffffffffffffffffffffffffffffffffffffff161415610a56576040517f08c379a0000000000000000000000000000000000000000000000000000000008152600401610a4d906124bc565b60405180910390fd5b600360008373ffffffffffffffffffffffffffffffffffffffff1673ffffffffffffffffffffffffffffffffffffffff168152602001908152602001600020549050919050565b60075481565b606060018054610ab290612841565b80601f0160208091040260200160405190810160405280929190818152602001828054610ade90612841565b8015610b2b5780601f10610b0057610100808354040283529160200191610b2b565b820191906000526020600020905b815481529060010190602001808311610b0e57829003601f168201915b5050505050905090565b610b3d611223565b73ffffffffffffffffffffffffffffffffffffffff168273ffffffffffffffffffffffffffffffffffffffff161415610bab576040517f08c379a0000000000000000000000000000000000000000000000000000000008152600401610ba29061243c565b60405180910390fd5b8060056000610bb8611223565b73ffffffffffffffffffffffffffffffffffffffff1673ffffffffffffffffffffffffffffffffffffffff16815260200190815260200160002060008473ffffffffffffffffffffffffffffffffffffffff1673ffffffffffffffffffffffffffffffffffffffff16815260200190815260200160002060006101000a81548160ff0219169083151502179055508173ffffffffffffffffffffffffffffffffffffffff16610c65611223565b73ffffffffffffffffffffffffffffffffffffffff167f17307eab39ab6107e8899845ad3d59bd9653f200f220920489ca2b5937696c3183604051610caa919061237f565b60405180910390a35050565b610cc7610cc1611223565b836112e4565b610d06576040517f08c379a0000000000000000000000000000000000000000000000000000000008152600401610cfd906125fc565b60405180910390fd5b610d128484848461163c565b50505050565b610d2182610870565b73ffffffffffffffffffffffffffffffffffffffff163373ffffffffffffffffffffffffffffffffffffffff1614610d8e576040517f08c379a0000000000000000000000000000000000000000000000000000000008152600401610d85906125dc565b60405180910390fd5b60008111610dd1576040517f08c379a0000000000000000000000000000000000000000000000000000000008152600401610dc89061257c565b60405180910390fd5b8060066000848152602001908152602001600020819055505050565b6060610df8826111b7565b610e37576040517f08c379a0000000000000000000000000000000000000000000000000000000008152600401610e2e9061259c565b60405180910390fd5b6000610e41611698565b90506000815111610e615760405180602001604052806000815250610e8c565b80610e6b846116b8565b604051602001610e7c9291906122bd565b6040516020818303038152906040525b915050919050565b610e9d81610870565b73ffffffffffffffffffffffffffffffffffffffff163373ffffffffffffffffffffffffffffffffffffffff1614610f0a576040517f08c379a0000000000000000000000000000000000000000000000000000000008152600401610f01906125dc565b60405180910390fd5b6000600660008381526020019081526020016000208190555050565b60006006600083815260200190815260200160002054905060008111610f81576040517f08c379a0000000000000000000000000000000000000000000000000000000008152600401610f78906123dc565b60405180910390fd5b803414610fc3576040517f08c379a0000000000000000000000000000000000000000000000000000000008152600401610fba9061253c565b60405180910390fd5b6000610fce83610870565b9050610fdb8133856113c2565b600060066000858152602001908152602001600020819055508073ffffffffffffffffffffffffffffffffffffffff166108fc349081150290604051600060405180830381858888f1935050505015801561103a573d6000803e3d6000fd5b507f608f6ac9327c2bf4d3c77adf447d2c448ba7b0971e0aaa9aa03f7ac29d874a4481333460405161106e939291906122fc565b60405180910390a1505050565b6000600560008473ffffffffffffffffffffffffffffffffffffffff1673ffffffffffffffffffffffffffffffffffffffff16815260200190815260200160002060008373ffffffffffffffffffffffffffffffffffffffff1673ffffffffffffffffffffffffffffffffffffffff16815260200190815260200160002060009054906101000a900460ff16905092915050565b60066020528060005260406000206000915090505481565b600860009054906101000a900473ffffffffffffffffffffffffffffffffffffffff1681565b60007f01ffc9a7000000000000000000000000000000000000000000000000000000007bffffffffffffffffffffffffffffffffffffffffffffffffffffffff1916827bffffffffffffffffffffffffffffffffffffffffffffffffffffffff1916149050919050565b60008073ffffffffffffffffffffffffffffffffffffffff166002600084815260200190815260200160002060009054906101000a900473ffffffffffffffffffffffffffffffffffffffff1673ffffffffffffffffffffffffffffffffffffffff1614159050919050565b600033905090565b816004600083815260200190815260200160002060006101000a81548173ffffffffffffffffffffffffffffffffffffffff021916908373ffffffffffffffffffffffffffffffffffffffff160217905550808273ffffffffffffffffffffffffffffffffffffffff1661129e83610870565b73ffffffffffffffffffffffffffffffffffffffff167f8c5be1e5ebec7d5bd14f71427d1e84f3dd0314c0f7b2291e5b200ac8c7c3b92560405160405180910390a45050565b60006112ef826111b7565b61132e576040517f08c379a00000000000000000000000000000000000000000000000000000000081526004016113259061247c565b60405180910390fd5b600061133983610870565b90508073ffffffffffffffffffffffffffffffffffffffff168473ffffffffffffffffffffffffffffffffffffffff1614806113a857508373ffffffffffffffffffffffffffffffffffffffff1661139084610653565b73ffffffffffffffffffffffffffffffffffffffff16145b806113b957506113b8818561107b565b5b91505092915050565b8273ffffffffffffffffffffffffffffffffffffffff166113e282610870565b73ffffffffffffffffffffffffffffffffffffffff1614611438576040517f08c379a000000000000000000000000000000000000000000000000000000000815260040161142f9061255c565b60405180910390fd5b600073ffffffffffffffffffffffffffffffffffffffff168273ffffffffffffffffffffffffffffffffffffffff1614156114a8576040517f08c379a000000000000000000000000000000000000000000000000000000000815260040161149f9061241c565b60405180910390fd5b6114b3838383611819565b6114be60008261122b565b6001600360008573ffffffffffffffffffffffffffffffffffffffff1673ffffffffffffffffffffffffffffffffffffffff168152602001908152602001600020600082825461150e9190612757565b925050819055506001600360008473ffffffffffffffffffffffffffffffffffffffff1673ffffffffffffffffffffffffffffffffffffffff168152602001908152602001600020600082825461156591906126d0565b92505081905550816002600083815260200190815260200160002060006101000a81548173ffffffffffffffffffffffffffffffffffffffff021916908373ffffffffffffffffffffffffffffffffffffffff160217905550808273ffffffffffffffffffffffffffffffffffffffff168473ffffffffffffffffffffffffffffffffffffffff167fddf252ad1be2c89b69c2b068fc378daa952ba7f163c4a11628f55a4df523b3ef60405160405180910390a4505050565b61163882826040518060200160405280600081525061181e565b5050565b6116478484846113c2565b61165384848484611879565b611692576040517f08c379a0000000000000000000000000000000000000000000000000000000008152600401611689906123bc565b60405180910390fd5b50505050565b6060604051806060016040528060238152602001612f3860239139905090565b60606000821415611700576040518060400160405280600181526020017f30000000000000000000000000000000000000000000000000000000000000008152509050611814565b600082905060005b6000821461173257808061171b906128a4565b915050600a8261172b9190612726565b9150611708565b60008167ffffffffffffffff81111561174e5761174d6129da565b5b6040519080825280601f01601f1916602001820160405280156117805781602001600182028036833780820191505090505b5090505b6000851461180d576001826117999190612757565b9150600a856117a891906128ed565b60306117b491906126d0565b60f81b8183815181106117ca576117c96129ab565b5b60200101907effffffffffffffffffffffffffffffffffffffffffffffffffffffffffffff1916908160001a905350600a856118069190612726565b9450611784565b8093505050505b919050565b505050565b6118288383611a10565b6118356000848484611879565b611874576040517f08c379a000000000000000000000000000000000000000000000000000000000815260040161186b906123bc565b60405180910390fd5b505050565b600061189a8473ffffffffffffffffffffffffffffffffffffffff16611bde565b15611a03578373ffffffffffffffffffffffffffffffffffffffff1663150b7a026118c3611223565b8786866040518563ffffffff1660e01b81526004016118e59493929190612333565b602060405180830381600087803b1580156118ff57600080fd5b505af192505050801561193057506040513d601f19601f8201168201806040525081019061192d9190611eba565b60015b6119b3573d8060008114611960576040519150601f19603f3d011682016040523d82523d6000602084013e611965565b606091505b506000815114156119ab576040517f08c379a00000000000000000000000000000000000000000000000000000000081526004016119a2906123bc565b60405180910390fd5b805181602001fd5b63150b7a0260e01b7bffffffffffffffffffffffffffffffffffffffffffffffffffffffff1916817bffffffffffffffffffffffffffffffffffffffffffffffffffffffff191614915050611a08565b600190505b949350505050565b600073ffffffffffffffffffffffffffffffffffffffff168273ffffffffffffffffffffffffffffffffffffffff161415611a80576040517f08c379a0000000000000000000000000000000000000000000000000000000008152600401611a77906124fc565b60405180910390fd5b611a89816111b7565b15611ac9576040517f08c379a0000000000000000000000000000000000000000000000000000000008152600401611ac0906123fc565b60405180910390fd5b611ad560008383611819565b6001600360008473ffffffffffffffffffffffffffffffffffffffff1673ffffffffffffffffffffffffffffffffffffffff1681526020019081526020016000206000828254611b2591906126d0565b92505081905550816002600083815260200190815260200160002060006101000a81548173ffffffffffffffffffffffffffffffffffffffff021916908373ffffffffffffffffffffffffffffffffffffffff160217905550808273ffffffffffffffffffffffffffffffffffffffff16600073ffffffffffffffffffffffffffffffffffffffff167fddf252ad1be2c89b69c2b068fc378daa952ba7f163c4a11628f55a4df523b3ef60405160405180910390a45050565b600080823b905060008111915050919050565b6000611c04611bff8461265c565b612637565b905082815260208101848484011115611c2057611c1f612a0e565b5b611c2b8482856127ff565b509392505050565b600081359050611c4281612edb565b92915050565b600081359050611c5781612ef2565b92915050565b600081359050611c6c81612f09565b92915050565b600081519050611c8181612f09565b92915050565b600082601f830112611c9c57611c9b612a09565b5b8135611cac848260208601611bf1565b91505092915050565b600081359050611cc481612f20565b92915050565b600060208284031215611ce057611cdf612a18565b5b6000611cee84828501611c33565b91505092915050565b60008060408385031215611d0e57611d0d612a18565b5b6000611d1c85828601611c33565b9250506020611d2d85828601611c33565b9150509250929050565b600080600060608486031215611d5057611d4f612a18565b5b6000611d5e86828701611c33565b9350506020611d6f86828701611c33565b9250506040611d8086828701611cb5565b9150509250925092565b60008060008060808587031215611da457611da3612a18565b5b6000611db287828801611c33565b9450506020611dc387828801611c33565b9350506040611dd487828801611cb5565b925050606085013567ffffffffffffffff811115611df557611df4612a13565b5b611e0187828801611c87565b91505092959194509250565b60008060408385031215611e2457611e23612a18565b5b6000611e3285828601611c33565b9250506020611e4385828601611c48565b9150509250929050565b60008060408385031215611e6457611e63612a18565b5b6000611e7285828601611c33565b9250506020611e8385828601611cb5565b9150509250929050565b600060208284031215611ea357611ea2612a18565b5b6000611eb184828501611c5d565b91505092915050565b600060208284031215611ed057611ecf612a18565b5b6000611ede84828501611c72565b91505092915050565b600060208284031215611efd57611efc612a18565b5b6000611f0b84828501611cb5565b91505092915050565b60008060408385031215611f2b57611f2a612a18565b5b6000611f3985828601611cb5565b9250506020611f4a85828601611cb5565b9150509250929050565b611f5d8161278b565b82525050565b611f6c8161279d565b82525050565b6000611f7d8261268d565b611f8781856126a3565b9350611f9781856020860161280e565b611fa081612a1d565b840191505092915050565b6000611fb682612698565b611fc081856126b4565b9350611fd081856020860161280e565b611fd981612a1d565b840191505092915050565b6000611fef82612698565b611ff981856126c5565b935061200981856020860161280e565b80840191505092915050565b60006120226032836126b4565b915061202d82612a2e565b604082019050919050565b6000612045601a836126b4565b915061205082612a7d565b602082019050919050565b6000612068601c836126b4565b915061207382612aa6565b602082019050919050565b600061208b6024836126b4565b915061209682612acf565b604082019050919050565b60006120ae6019836126b4565b91506120b982612b1e565b602082019050919050565b60006120d1600a836126b4565b91506120dc82612b47565b602082019050919050565b60006120f4602c836126b4565b91506120ff82612b70565b604082019050919050565b60006121176038836126b4565b915061212282612bbf565b604082019050919050565b600061213a602a836126b4565b915061214582612c0e565b604082019050919050565b600061215d6029836126b4565b915061216882612c5d565b604082019050919050565b60006121806020836126b4565b915061218b82612cac565b602082019050919050565b60006121a3602c836126b4565b91506121ae82612cd5565b604082019050919050565b60006121c6600f836126b4565b91506121d182612d24565b602082019050919050565b60006121e96029836126b4565b91506121f482612d4d565b604082019050919050565b600061220c600a836126b4565b915061221782612d9c565b602082019050919050565b600061222f602f836126b4565b915061223a82612dc5565b604082019050919050565b60006122526021836126b4565b915061225d82612e14565b604082019050919050565b60006122756017836126b4565b915061228082612e63565b602082019050919050565b60006122986031836126b4565b91506122a382612e8c565b604082019050919050565b6122b7816127f5565b82525050565b60006122c98285611fe4565b91506122d58284611fe4565b91508190509392505050565b60006020820190506122f66000830184611f54565b92915050565b60006060820190506123116000830186611f54565b61231e6020830185611f54565b61232b60408301846122ae565b949350505050565b60006080820190506123486000830187611f54565b6123556020830186611f54565b61236260408301856122ae565b81810360608301526123748184611f72565b905095945050505050565b60006020820190506123946000830184611f63565b92915050565b600060208201905081810360008301526123b48184611fab565b905092915050565b600060208201905081810360008301526123d581612015565b9050919050565b600060208201905081810360008301526123f581612038565b9050919050565b600060208201905081810360008301526124158161205b565b9050919050565b600060208201905081810360008301526124358161207e565b9050919050565b60006020820190508181036000830152612455816120a1565b9050919050565b60006020820190508181036000830152612475816120c4565b9050919050565b60006020820190508181036000830152612495816120e7565b9050919050565b600060208201905081810360008301526124b58161210a565b9050919050565b600060208201905081810360008301526124d58161212d565b9050919050565b600060208201905081810360008301526124f581612150565b9050919050565b6000602082019050818103600083015261251581612173565b9050919050565b6000602082019050818103600083015261253581612196565b9050919050565b60006020820190508181036000830152612555816121b9565b9050919050565b60006020820190508181036000830152612575816121dc565b9050919050565b60006020820190508181036000830152612595816121ff565b9050919050565b600060208201905081810360008301526125b581612222565b9050919050565b600060208201905081810360008301526125d581612245565b9050919050565b600060208201905081810360008301526125f581612268565b9050919050565b600060208201905081810360008301526126158161228b565b9050919050565b600060208201905061263160008301846122ae565b92915050565b6000612641612652565b905061264d8282612873565b919050565b6000604051905090565b600067ffffffffffffffff821115612677576126766129da565b5b61268082612a1d565b9050602081019050919050565b600081519050919050565b600081519050919050565b600082825260208201905092915050565b600082825260208201905092915050565b600081905092915050565b60006126db826127f5565b91506126e6836127f5565b9250827fffffffffffffffffffffffffffffffffffffffffffffffffffffffffffffffff0382111561271b5761271a61291e565b5b828201905092915050565b6000612731826127f5565b915061273c836127f5565b92508261274c5761274b61294d565b5b828204905092915050565b6000612762826127f5565b915061276d836127f5565b9250828210156127805761277f61291e565b5b828203905092915050565b6000612796826127d5565b9050919050565b60008115159050919050565b60007fffffffff0000000000000000000000000000000000000000000000000000000082169050919050565b600073ffffffffffffffffffffffffffffffffffffffff82169050919050565b6000819050919050565b82818337600083830152505050565b60005b8381101561282c578082015181840152602081019050612811565b8381111561283b576000848401525b50505050565b6000600282049050600182168061285957607f821691505b6020821081141561286d5761286c61297c565b5b50919050565b61287c82612a1d565b810181811067ffffffffffffffff8211171561289b5761289a6129da565b5b80604052505050565b60006128af826127f5565b91507fffffffffffffffffffffffffffffffffffffffffffffffffffffffffffffffff8214156128e2576128e161291e565b5b600182019050919050565b60006128f8826127f5565b9150612903836127f5565b9250826129135761291261294d565b5b828206905092915050565b7f4e487b7100000000000000000000000000000000000000000000000000000000600052601160045260246000fd5b7f4e487b7100000000000000000000000000000000000000000000000000000000600052601260045260246000fd5b7f4e487b7100000000000000000000000000000000000000000000000000000000600052602260045260246000fd5b7f4e487b7100000000000000000000000000000000000000000000000000000000600052603260045260246000fd5b7f4e487b7100000000000000000000000000000000000000000000000000000000600052604160045260246000fd5b600080fd5b600080fd5b600080fd5b600080fd5b6000601f19601f8301169050919050565b7f4552433732313a207472616e7366657220746f206e6f6e20455243373231526560008201527f63656976657220696d706c656d656e7465720000000000000000000000000000602082015250565b7f5468697320746f6b656e206973206e6f7420666f722073616c65000000000000600082015250565b7f4552433732313a20746f6b656e20616c7265616479206d696e74656400000000600082015250565b7f4552433732313a207472616e7366657220746f20746865207a65726f2061646460008201527f7265737300000000000000000000000000000000000000000000000000000000602082015250565b7f4552433732313a20617070726f766520746f2063616c6c657200000000000000600082015250565b7f6f6e6c792061646d696e00000000000000000000000000000000000000000000600082015250565b7f4552433732313a206f70657261746f7220717565727920666f72206e6f6e657860008201527f697374656e7420746f6b656e0000000000000000000000000000000000000000602082015250565b7f4552433732313a20617070726f76652063616c6c6572206973206e6f74206f7760008201527f6e6572206e6f7220617070726f76656420666f7220616c6c0000000000000000602082015250565b7f4552433732313a2062616c616e636520717565727920666f7220746865207a6560008201527f726f206164647265737300000000000000000000000000000000000000000000602082015250565b7f4552433732313a206f776e657220717565727920666f72206e6f6e657869737460008201527f656e7420746f6b656e0000000000000000000000000000000000000000000000602082015250565b7f4552433732313a206d696e7420746f20746865207a65726f2061646472657373600082015250565b7f4552433732313a20617070726f76656420717565727920666f72206e6f6e657860008201527f697374656e7420746f6b656e0000000000000000000000000000000000000000602082015250565b7f496e636f72726563742076616c75650000000000000000000000000000000000600082015250565b7f4552433732313a207472616e73666572206f6620746f6b656e2074686174206960008201527f73206e6f74206f776e0000000000000000000000000000000000000000000000602082015250565b7f5072696365207a65726f00000000000000000000000000000000000000000000600082015250565b7f4552433732314d657461646174613a2055524920717565727920666f72206e6f60008201527f6e6578697374656e7420746f6b656e0000000000000000000000000000000000602082015250565b7f4552433732313a20617070726f76616c20746f2063757272656e74206f776e6560008201527f7200000000000000000000000000000000000000000000000000000000000000602082015250565b7f4e6f74206f776e6572206f66207468697320746f6b656e000000000000000000600082015250565b7f4552433732313a207472616e736665722063616c6c6572206973206e6f74206f60008201527f776e6572206e6f7220617070726f766564000000000000000000000000000000602082015250565b612ee48161278b565b8114612eef57600080fd5b50565b612efb8161279d565b8114612f0657600080fd5b50565b612f12816127a9565b8114612f1d57600080fd5b50565b612f29816127f5565b8114612f3457600080fd5b5056fe68747470733a2f2f736574682d62616c616e63652e6865726f6b756170702e636f6d2fa26469706673582212206c4459886137fbe9731a1c150439ef1bb654d19be4e7303714bd59a6c5c7962064736f6c63430008060033",
  "immutableReferences": {},
  "source": "// SPDX-License-Identifier: MIT\r\npragma solidity >=0.4.21 <0.9.0;\r\n\r\nimport '@openzeppelin-contracts/contracts/token/ERC721/ERC721.sol';\r\nimport '@openzeppelin-contracts/contracts/finance/PaymentSplitter.sol';\r\n\r\ncontract BALANCE is ERC721 {\r\n    event NftBought(address _seller, address _buyer, uint256 _price);\r\n\r\n    mapping (uint256 => uint256) public tokenIdToPrice;\r\n\tuint public nextTokenId;\r\n\t  address public admin;\r\n\r\n    constructor() ERC721('Balance', 'BALANCE') {\r\n\t\t  admin = msg.sender;\r\n    }\r\n\t\r\n\t  function mint(address to) external {\r\n    require(msg.sender == admin, 'only admin');\r\n    if(nextTokenId < 2){_safeMint(to, nextTokenId);\r\n    nextTokenId++;\r\n\t}\r\n  } \r\n\t\r\n\t\t\t  function _baseURI() internal view override returns (string memory) {\r\n    return 'https://seth-balance.herokuapp.com/';\r\n  }\r\n\r\n    function allowBuy(uint256 _tokenId, uint256 _price) external {\r\n        require(msg.sender == ownerOf(_tokenId), 'Not owner of this token');\r\n        require(_price > 0, 'Price zero');\r\n        tokenIdToPrice[_tokenId] = _price;\r\n    }\r\n\r\n    function disallowBuy(uint256 _tokenId) external {\r\n        require(msg.sender == ownerOf(_tokenId), 'Not owner of this token');\r\n        tokenIdToPrice[_tokenId] = 0;\r\n    }\r\n    \r\n    function buy(uint256 _tokenId) external payable {\r\n        uint256 price = tokenIdToPrice[_tokenId];\r\n        require(price > 0, 'This token is not for sale');\r\n        require(msg.value == price, 'Incorrect value');\r\n        \r\n        address seller = ownerOf(_tokenId);\r\n        _transfer(seller, msg.sender, _tokenId);\r\n        tokenIdToPrice[_tokenId] = 0; // not for sale anymore\r\n        payable(seller).transfer(msg.value); // send the ETH to the seller\r\n\r\n        emit NftBought(seller, msg.sender, msg.value);\r\n    }\r\n}",
  "sourcePath": "C:/Users/rodri/web3_projects/seth-nft-drizzle-mainet/contracts/BALANCE.sol",
  "compiler": {
    "name": "solc",
    "version": "0.8.6+commit.11564f7e.Emscripten.clang"
  },
  "schemaVersion": "3.4.1",
  "updatedAt": "2021-07-16T04:46:58.843Z",
  "networkType": "ethereum",
  "devdoc": {
    "kind": "dev",
    "methods": {
      "approve(address,uint256)": {
        "details": "See {IERC721-approve}."
      },
      "balanceOf(address)": {
        "details": "See {IERC721-balanceOf}."
      },
      "getApproved(uint256)": {
        "details": "See {IERC721-getApproved}."
      },
      "isApprovedForAll(address,address)": {
        "details": "See {IERC721-isApprovedForAll}."
      },
      "name()": {
        "details": "See {IERC721Metadata-name}."
      },
      "ownerOf(uint256)": {
        "details": "See {IERC721-ownerOf}."
      },
      "safeTransferFrom(address,address,uint256)": {
        "details": "See {IERC721-safeTransferFrom}."
      },
      "safeTransferFrom(address,address,uint256,bytes)": {
        "details": "See {IERC721-safeTransferFrom}."
      },
      "setApprovalForAll(address,bool)": {
        "details": "See {IERC721-setApprovalForAll}."
      },
      "supportsInterface(bytes4)": {
        "details": "See {IERC165-supportsInterface}."
      },
      "symbol()": {
        "details": "See {IERC721Metadata-symbol}."
      },
      "tokenURI(uint256)": {
        "details": "See {IERC721Metadata-tokenURI}."
      },
      "transferFrom(address,address,uint256)": {
        "details": "See {IERC721-transferFrom}."
      }
    },
    "version": 1
  },
  "userdoc": {
    "kind": "user",
    "methods": {},
    "version": 1
  }
}